:020000040000FA
:04000000C5EF3FF019
:107F8A000001D3EF3FF0CDEC3FF095928C921200B6
:107F9A00D390D392D388D38AD38C1200C8EC3FF003
:107FAA008C72DCEC3FF0D5EF3FF000EF00F0000EF2
:107FBA00026E000E016EF4EF3FF0800ECD6EF80EE9
:107FCA00CF6E300ECE6ECD809EA0EEEF3FF0F0EF7A
:107FDA003FF0E9EF3FF0CD909E90014A022AF40E5D
:107FEA00011806E10204D8A4FDEF3FF0FFEF3FF0CD
:067FFA00E2EF3FF012006F
:020000040020DA
:08000000FFFFFFFFFFFFFFFF00
:020000040030CA
:0E00000001891F1EFF0385FF0FC00FE00F4098
:00000001FF
