:020000040000FA
:0400000007EF00F016
:10000800028223ED00F04BEF00F03CEC00F033EC03
:1000180000F083B012EF00F015EF00F0010E16EFBC
:1000280000F0000EFF0A016E014601468C500118CF
:10003800FB0B01188C6E0DEF00F007EF00F00600C7
:10004800F2A429EF00F02BEF00F031EF00F08C72F2
:10005800E10ED76E7B0ED66EF29402921100E10E7D
:10006800D76E7B0ED66E870ED56EF28EF28A120090
:1000780045EC00F095929594848E95808C928C94A2
:100088001200D390D392D388D38AD38C12000290D3
:080098000292000109EF00F0E3
:020000040020DA
:08000000FFFFFFFFFFFFFFFF00
:020000040030CA
:0E00000001891F1EFF0381FF0FC00FE00F409C
:00000001FF
