:020000040000FA
:04000000B6EF3FF028
:107F6C000001C5EF3FF0D390D392D388D38AD38C42
:107F7C001200B9EC3FF09592848E95801200BFEC04
:107F8C003FF083B0CCEF3FF0CEEF3FF0FBEF3FF094
:107F9C00020E026E040E016EBA0EE82EFED7012EF2
:107FAC00FCD7022EFAD700D083B0DFEF3FF0E1EF21
:107FBC003FF0C7EF3FF08C82060E026E130E016E7F
:107FCC00AE0EE82EFED7012EFCD7022EFAD78C92DD
:107FDC00060E026E130E016EAE0EE82EFED7012EAB
:107FEC00FCD7022EFAD7C7EF3FF08C92C7EF3FF0C9
:047FFC0000EF00F0A2
:020000040020DA
:08000000FFFFFFFFFFFFFFFF00
:020000040030CA
:0E00000001891F1EFF0385FF0FC00FE00F4098
:00000001FF
